Component: ARM Compiler 5.05 (build 41) Tool: armlink [4d0eb9]

==============================================================================

Section Cross References

    arm_startup_nrf51.o(STACK) refers (Special) to heapauxi.o(.text) for __use_two_region_memory
    arm_startup_nrf51.o(HEAP) refers (Special) to heapauxi.o(.text) for __use_two_region_memory
    arm_startup_nrf51.o(RESET) refers (Special) to heapauxi.o(.text) for __use_two_region_memory
    arm_startup_nrf51.o(RESET) refers to arm_startup_nrf51.o(STACK) for __initial_sp
    arm_startup_nrf51.o(RESET) refers to arm_startup_nrf51.o(.text) for Reset_Handler
    arm_startup_nrf51.o(RESET) refers to app_gpiote.o(.text) for GPIOTE_IRQHandler
    arm_startup_nrf51.o(RESET) refers to main.o(.text) for ADC_IRQHandler
    arm_startup_nrf51.o(RESET) refers to app_timer.o(.text) for RTC1_IRQHandler
    arm_startup_nrf51.o(RESET) refers to ble_radio_notification.o(.text) for SWI1_IRQHandler
    arm_startup_nrf51.o(RESET) refers to softdevice_handler.o(.text) for SWI2_IRQHandler
    arm_startup_nrf51.o(.text) refers (Special) to heapauxi.o(.text) for __use_two_region_memory
    arm_startup_nrf51.o(.text) refers to system_nrf51.o(.text) for SystemInit
    arm_startup_nrf51.o(.text) refers to __main.o(!!!main) for __main
    arm_startup_nrf51.o(.text) refers to arm_startup_nrf51.o(HEAP) for Heap_Mem
    arm_startup_nrf51.o(.text) refers to arm_startup_nrf51.o(STACK) for Stack_Mem
    system_nrf51.o(.text) refers to system_nrf51.o(.data) for SystemCoreClock
    main.o(.text) refers to app_timer.o(.text) for app_timer_init
    main.o(.text) refers to rt_memclr.o(.text) for __aeabi_memclr4
==============================================================================

Removing Unused input sections from the image.

    Removing system_nrf51.o(.rev16_text), (4 bytes).
    Removing system_nrf51.o(.revsh_text), (4 bytes).
    Removing main.o(.rev16_text), (4 bytes).
    Removing main.o(.revsh_text), (4 bytes).
    Removing ble_srv_common.o(.text), (136 bytes).
    Removing app_timer.o(.rev16_text), (4 bytes).
    Removing app_timer.o(.revsh_text), (4 bytes).
    Removing softdevice_handler.o(.rev16_text), (4 bytes).
    Removing softdevice_handler.o(.revsh_text), (4 bytes).
    Removing pstorage.o(.rev16_text), (4 bytes).
    Removing pstorage.o(.revsh_text), (4 bytes).
    Removing crc16.o(.text), (68 bytes).
    Removing ble_debug_assert_handler.o(.rev16_text), (4 bytes).
    Removing ble_debug_assert_handler.o(.revsh_text), (4 bytes).
    Removing ble_debug_assert_handler.o(.text), (60 bytes).
    Removing ble_debug_assert_handler.o(.bss), (128 bytes).
    Removing ble_debug_assert_handler.o(.data), (8 bytes).
    Removing app_trace.o(.rev16_text), (4 bytes).
==============================================================================

Image Symbol Table

    Local Symbols

    Symbol Name                              Value     Ov Type        Size  Object(Section)

    ../clib/angel/boardlib.s                 0x00000000   Number         0  boardinit1.o ABSOLUTE
    ../clib/angel/boardlib.s                 0x00000000   Number         0  boardinit2.o ABSOLUTE
    ../clib/angel/boardlib.s                 0x00000000   Number         0  boardinit3.o ABSOLUTE
    ../clib/angel/boardlib.s                 0x00000000   Number         0  boardshut.o ABSOLUTE
    ../clib/angel/handlers.s                 0x00000000   Number         0  __scatter_copy.o ABSOLUTE
    ../clib/angel/handlers.s                 0x00000000   Number         0  __scatter_zi.o ABSOLUTE
    ../clib/angel/kernel.s                   0x00000000   Number         0  __rtentry.o ABSOLUTE
    ../clib/angel/kernel.s                   0x00000000   Number         0  __rtentry2.o ABSOLUTE
    ../clib/angel/kernel.s                   0x00000000   Number         0  __rtentry4.o ABSOLUTE
    ../clib/angel/kernel.s                   0x00000000   Number         0  rtexit.o ABSOLUTE
    ../clib/angel/kernel.s                   0x00000000   Number         0  rtexit2.o ABSOLUTE
    ../clib/angel/rt.s                       0x00000000   Number         0  aeabi_idiv0.o ABSOLUTE
    ../clib/angel/rt.s                       0x00000000   Number         0  aeabi_idiv0_sigfpe.o ABSOLUTE
    ../clib/angel/rt.s                       0x00000000   Number         0  rt_div0.o ABSOLUTE
    ../clib/angel/rt.s                       0x00000000   Number         0  rt_raise.o ABSOLUTE
    ../clib/angel/scatterp.s                 0x00000000   Number         0  __scatter.o ABSOLUTE
    ../clib/angel/startup.s                  0x00000000   Number         0  __main.o ABSOLUTE
    ../clib/angel/sys.s                      0x00000000   Number         0  tempstk.o ABSOLUTE
    ../clib/angel/sys.s                      0x00000000   Number         0  sys_stackheap_outer.o ABSOLUTE
    ../clib/angel/sys.s                      0x00000000   Number         0  libspace.o ABSOLUTE
    ../clib/angel/sys.s                      0x00000000   Number         0  use_no_semi.o ABSOLUTE
    ../clib/angel/sys.s                      0x00000000   Number         0  indicate_semi.o ABSOLUTE
    ../clib/angel/sysapp.c                   0x00000000   Number         0  sys_command.o ABSOLUTE
    ../clib/angel/sysapp.c                   0x00000000   Number         0  sys_exit.o ABSOLUTE
    ../clib/angel/sysapp.c                   0x00000000   Number         0  sys_wrch.o ABSOLUTE
    ../clib/armsys.c                         0x00000000   Number         0  _get_argv_nomalloc.o ABSOLUTE
    ../clib/armsys.c                         0x00000000   Number         0  no_argv.o ABSOLUTE
    ../clib/armsys.c                         0x00000000   Number         0  argv_veneer.o ABSOLUTE
    ../clib/division.s                       0x00000000   Number         0  aeabi_sdiv_div0.o ABSOLUTE
    ../clib/division.s                       0x00000000   Number         0  aeabi_sdiv.o ABSOLUTE
    ../clib/heapalloc.c                      0x00000000   Number         0  hrguard.o ABSOLUTE
    ../clib/heapaux.c                        0x00000000   Number         0  heapauxi.o ABSOLUTE
    ../clib/libinit.s                        0x00000000   Number         0  libshutdown2.o ABSOLUTE
    ../clib/libinit.s                        0x00000000   Number         0  libinit.o ABSOLUTE
    ../clib/libinit.s                        0x00000000   Number         0  libinit2.o ABSOLUTE
    ../clib/libinit.s                        0x00000000   Number         0  libshutdown.o ABSOLUTE
    ../clib/memcpset.c                       0x00000000   Number         0  rt_memclr.o ABSOLUTE
    ../clib/memcpset.c                       0x00000000   Number         0  rt_memcpy.o ABSOLUTE
    ../clib/memcpset.c                       0x00000000   Number         0  rt_memcpy.o ABSOLUTE
    ../clib/signal.c                         0x00000000   Number         0  defsig_other.o ABSOLUTE
    ../clib/signal.c                         0x00000000   Number         0  defsig_segv_inner.o ABSOLUTE
    ../clib/signal.c                         0x00000000   Number         0  defsig_rtred_inner.o ABSOLUTE
    ../clib/signal.c                         0x00000000   Number         0  defsig_exit.o ABSOLUTE
    ../clib/signal.c                         0x00000000   Number         0  defsig_fpe_inner.o ABSOLUTE
    ../clib/signal.c                         0x00000000   Number         0  defsig_rtmem_inner.o ABSOLUTE
    ../clib/signal.c                         0x00000000   Number         0  defsig_rtmem_outer.o ABSOLUTE
    ../clib/signal.c                         0x00000000   Number         0  defsig_rtmem_formal.o ABSOLUTE
    ../clib/signal.c                         0x00000000   Number         0  defsig_cppl_inner.o ABSOLUTE
    ../clib/signal.c                         0x00000000   Number         0  defsig_abrt_inner.o ABSOLUTE
    ../clib/signal.c                         0x00000000   Number         0  defsig_fpe_outer.o ABSOLUTE
    ../clib/signal.c                         0x00000000   Number         0  defsig_fpe_formal.o ABSOLUTE
    ../clib/signal.c                         0x00000000   Number         0  defsig_stak_inner.o ABSOLUTE
    ../clib/signal.c                         0x00000000   Number         0  defsig_pvfn_inner.o ABSOLUTE
    ../clib/signal.c                         0x00000000   Number         0  __raise.o ABSOLUTE
    ../clib/signal.c                         0x00000000   Number         0  defsig_general.o ABSOLUTE
    ../clib/signal.s                         0x00000000   Number         0  defsig.o ABSOLUTE
    ../clib/stdlib.c                         0x00000000   Number         0  exit.o ABSOLUTE
    ../clib/string.c                         0x00000000   Number         0  strncpy.o ABSOLUTE
    ../clib/string.c                         0x00000000   Number         0  strlen.o ABSOLUTE
    ../clib/string.c                         0x00000000   Number         0  memcmp.o ABSOLUTE
    ../fplib/cfplib/dmul.c                   0x00000000   Number         0  dmul.o ABSOLUTE
    ../fplib/cfplib/ffix.c                   0x00000000   Number         0  dfixi.o ABSOLUTE
    ../fplib/cfplib/fflt.c                   0x00000000   Number         0  dflti.o ABSOLUTE
    ../fplib/cfplib/fpinit.c                 0x00000000   Number         0  fpinit.o ABSOLUTE
    ../fplib/usenofp.s                       0x00000000   Number         0  usenofp.o ABSOLUTE
    ..\..\..\..\..\Source\app_common\app_button.c 0x00000000   Number         0  app_button.o ABSOLUTE
    ..\..\..\..\..\Source\app_common\app_gpiote.c 0x00000000   Number         0  app_gpiote.o ABSOLUTE
    ..\..\..\..\..\Source\app_common\app_scheduler.c 0x00000000   Number         0  app_scheduler.o ABSOLUTE
    ..\..\..\..\..\Source\app_common\app_timer.c 0x00000000   Number         0  app_timer.o ABSOLUTE
    ..\..\..\..\..\Source\app_common\app_trace.c 0x00000000   Number         0  app_trace.o ABSOLUTE
    ..\..\..\..\..\Source\app_common\crc16.c 0x00000000   Number         0  crc16.o ABSOLUTE
    ..\..\..\..\..\Source\app_common\pstorage.c 0x00000000   Number         0  pstorage.o ABSOLUTE
    ..\..\..\..\..\Source\ble\ble_advdata.c  0x00000000   Number         0  ble_advdata.o ABSOLUTE
    ..\..\..\..\..\Source\ble\ble_debug_assert_handler.c 0x00000000   Number         0  ble_debug_assert_handler.o ABSOLUTE
    ..\..\..\..\..\Source\ble\ble_error_log.c 0x00000000   Number         0  ble_error_log.o ABSOLUTE
    ..\..\..\..\..\Source\ble\ble_radio_notification.c 0x00000000   Number         0  ble_radio_notification.o ABSOLUTE
    ..\..\..\..\..\Source\ble\ble_services\ble_srv_common.c 0x00000000   Number         0  ble_srv_common.o ABSOLUTE
    ..\..\..\..\..\Source\ble\device_manager\device_manager_peripheral.c 0x00000000   Number         0  device_manager_peripheral.o ABSOLUTE
    ..\..\..\..\..\Source\sd_common\softdevice_handler.c 0x00000000   Number         0  softdevice_handler.o ABSOLUTE
    ..\..\..\..\..\Source\simple_uart\simple_uart.c 0x00000000   Number         0  simple_uart.o ABSOLUTE
    ..\\..\\..\\..\\..\\Source\\app_common\\app_button.c 0x00000000   Number         0  app_button.o ABSOLUTE
    ..\\..\\..\\..\\..\\Source\\app_common\\app_gpiote.c 0x00000000   Number         0  app_gpiote.o ABSOLUTE
    ..\\..\\..\\..\\..\\Source\\app_common\\app_scheduler.c 0x00000000   Number         0  app_scheduler.o ABSOLUTE
    ..\\..\\..\\..\\..\\Source\\app_common\\app_timer.c 0x00000000   Number         0  app_timer.o ABSOLUTE
    ..\\..\\..\\..\\..\\Source\\app_common\\app_trace.c 0x00000000   Number         0  app_trace.o ABSOLUTE
    ..\\..\\..\\..\\..\\Source\\app_common\\pstorage.c 0x00000000   Number         0  pstorage.o ABSOLUTE
    ..\\..\\..\\..\\..\\Source\\ble\\ble_debug_assert_handler.c 0x00000000   Number         0  ble_debug_assert_handler.o ABSOLUTE
    ..\\..\\..\\..\\..\\Source\\ble\\ble_radio_notification.c 0x00000000   Number         0  ble_radio_notification.o ABSOLUTE
    ..\\..\\..\\..\\..\\Source\\sd_common\\softdevice_handler.c 0x00000000   Number         0  softdevice_handler.o ABSOLUTE
    ..\\..\\..\\..\\..\\Source\\simple_uart\\simple_uart.c 0x00000000   Number         0  simple_uart.o ABSOLUTE
    ..\\main.c                               0x00000000   Number         0  main.o ABSOLUTE
    ..\main.c                                0x00000000   Number         0  main.o ABSOLUTE
    RTE\Device\nRF51822_xxAB\arm_startup_nrf51.s 0x00000000   Number         0  arm_startup_nrf51.o ABSOLUTE
    RTE\Device\nRF51822_xxAB\system_nrf51.c  0x00000000   Number         0  system_nrf51.o ABSOLUTE
    RTE\\Device\\nRF51822_xxAB\\system_nrf51.c 0x00000000   Number         0  system_nrf51.o ABSOLUTE
    dc.s                                     0x00000000   Number         0  dc.o ABSOLUTE
    RESET                                    0x00016000   Section      192  arm_startup_nrf51.o(RESET)
    !!!main                                  0x000160c0   Section        8  __main.o(!!!main)
    !!!scatter                               0x000160c8   Section       60  __scatter.o(!!!scatter)
    !!handler_copy                           0x00016104   Section       26  __scatter_copy.o(!!handler_copy)
    !!handler_zi                             0x00016120   Section       28  __scatter_zi.o(!!handler_zi)
    .ARM.Collect$$libinit$$00000000          0x0001613c   Section        2  libinit.o(.ARM.Collect$$libinit$$00000000)
    .ARM.Collect$$libinit$$00000002          0x0001613e   Section        0  libinit2.o(.ARM.Collect$$libinit$$00000002)
    .ARM.Collect$$libinit$$00000004          0x0001613e   Section        0  libinit2.o(.ARM.Collect$$libinit$$00000004)
    .ARM.Collect$$libinit$$0000000A          0x0001613e   Section        0  libinit2.o(.ARM.Collect$$libinit$$0000000A)
    .ARM.Collect$$libinit$$0000000C          0x0001613e   Section        0  libinit2.o(.ARM.Collect$$libinit$$0000000C)
    .ARM.Collect$$libinit$$0000000E          0x0001613e   Section        0  libinit2.o(.ARM.Collect$$libinit$$0000000E)
    .ARM.Collect$$libinit$$00000011          0x0001613e   Section        0  libinit2.o(.ARM.Collect$$libinit$$00000011)
    .ARM.Collect$$libinit$$00000013          0x0001613e   Section        0  libinit2.o(.ARM.Collect$$libinit$$00000013)
    .ARM.Collect$$libinit$$00000015          0x0001613e   Section        0  libinit2.o(.ARM.Collect$$libinit$$00000015)
    .ARM.Collect$$libinit$$00000017          0x0001613e   Section        0  libinit2.o(.ARM.Collect$$libinit$$00000017)
    .ARM.Collect$$libinit$$00000019          0x0001613e   Section        0  libinit2.o(.ARM.Collect$$libinit$$00000019)
    .ARM.Collect$$libinit$$0000001B          0x0001613e   Section        0  libinit2.o(.ARM.Collect$$libinit$$0000001B)
    .ARM.Collect$$libinit$$0000001D          0x0001613e   Section        0  libinit2.o(.ARM.Collect$$libinit$$0000001D)
    .ARM.Collect$$libinit$$0000001F          0x0001613e   Section        0  libinit2.o(.ARM.Collect$$libinit$$0000001F)
    .ARM.Collect$$libinit$$00000021          0x0001613e   Section        0  libinit2.o(.ARM.Collect$$libinit$$00000021)
    .ARM.Collect$$libinit$$00000023          0x0001613e   Section        0  libinit2.o(.ARM.Collect$$libinit$$00000023)
    .ARM.Collect$$libinit$$00000025          0x0001613e   Section        0  libinit2.o(.ARM.Collect$$libinit$$00000025)
    .ARM.Collect$$libinit$$0000002C          0x0001613e   Section        0  libinit2.o(.ARM.Collect$$libinit$$0000002C)
    .ARM.Collect$$libinit$$0000002E          0x0001613e   Section        0  libinit2.o(.ARM.Collect$$libinit$$0000002E)
    .ARM.Collect$$libinit$$00000030          0x0001613e   Section        0  libinit2.o(.ARM.Collect$$libinit$$00000030)
    .ARM.Collect$$libinit$$00000032          0x0001613e   Section        0  libinit2.o(.ARM.Collect$$libinit$$00000032)
    .ARM.Collect$$libinit$$00000033          0x0001613e   Section        2  libinit2.o(.ARM.Collect$$libinit$$00000033)
    .ARM.Collect$$libshutdown$$00000000      0x00016140   Section        2  libshutdown.o(.ARM.Collect$$libshutdown$$00000000)
    .ARM.Collect$$libshutdown$$00000003      0x00016142   Section        0  libshutdown2.o(.ARM.Collect$$libshutdown$$00000003)
    .ARM.Collect$$libshutdown$$00000006      0x00016142   Section        0  libshutdown2.o(.ARM.Collect$$libshutdown$$00000006)
    .ARM.Collect$$libshutdown$$00000009      0x00016142   Section        0  libshutdown2.o(.ARM.Collect$$libshutdown$$00000009)
    .ARM.Collect$$libshutdown$$0000000B      0x00016142   Section        0  libshutdown2.o(.ARM.Collect$$libshutdown$$0000000B)
    .ARM.Collect$$libshutdown$$0000000E      0x00016142   Section        0  libshutdown2.o(.ARM.Collect$$libshutdown$$0000000E)
    .ARM.Collect$$libshutdown$$0000000F      0x00016142   Section        2  libshutdown2.o(.ARM.Collect$$libshutdown$$0000000F)
    .ARM.Collect$$rtentry$$00000000          0x00016144   Section        0  __rtentry.o(.ARM.Collect$$rtentry$$00000000)
    .ARM.Collect$$rtentry$$00000002          0x00016144   Section        0  __rtentry2.o(.ARM.Collect$$rtentry$$00000002)
    .ARM.Collect$$rtentry$$00000004          0x00016144   Section        6  __rtentry4.o(.ARM.Collect$$rtentry$$00000004)
    .ARM.Collect$$rtentry$$00000009          0x0001614a   Section        0  __rtentry2.o(.ARM.Collect$$rtentry$$00000009)
    .ARM.Collect$$rtentry$$0000000A          0x0001614a   Section        4  __rtentry2.o(.ARM.Collect$$rtentry$$0000000A)
    .ARM.Collect$$rtentry$$0000000C          0x0001614e   Section        0  __rtentry2.o(.ARM.Collect$$rtentry$$0000000C)
    .ARM.Collect$$rtentry$$0000000D          0x0001614e   Section        8  __rtentry2.o(.ARM.Collect$$rtentry$$0000000D)
    .ARM.Collect$$rtexit$$00000000           0x00016156   Section        2  rtexit.o(.ARM.Collect$$rtexit$$00000000)
    .ARM.Collect$$rtexit$$00000002           0x00016158   Section        0  rtexit2.o(.ARM.Collect$$rtexit$$00000002)
    .ARM.Collect$$rtexit$$00000003           0x00016158   Section        4  rtexit2.o(.ARM.Collect$$rtexit$$00000003)
    .ARM.Collect$$rtexit$$00000004           0x0001615c   Section        6  rtexit2.o(.ARM.Collect$$rtexit$$00000004)
    .emb_text                                0x00016164   Section       30  app_timer.o(.emb_text)
    .emb_text                                0x00016184   Section       56  rt_memcpy.o(.emb_text)
    .text                                    0x000161bc   Section       84  arm_startup_nrf51.o(.text)
    .text                                    0x00016210   Section        0  system_nrf51.o(.text)
    is_disabled_in_debug_needed              0x00016219   Thumb Code    52  system_nrf51.o(.text)
    is_manual_peripheral_setup_needed        0x0001624d   Thumb Code   104  system_nrf51.o(.text)
    .text                                    0x000162f8   Section        0  main.o(.text)
    ten_second_flag_timeout_handler          0x00016317   Thumb Code     8  main.o(.text)
    timers_init                              0x0001631f   Thumb Code    94  main.o(.text)
    gap_params_init                          0x0001637d   Thumb Code   160  main.o(.text)
    readTempTooHighFromFlash                 0x0001641d   Thumb Code    20  main.o(.text)
    readTempTooLowFromFlash                  0x00016431   Thumb Code    20  main.o(.text)
    advertising_init                         0x00016445   Thumb Code   256  main.o(.text)
    application_timers_start                 0x00016545   Thumb Code    46  main.o(.text)
    advertising_start                        0x00016573   Thumb Code    86  main.o(.text)
    on_ble_evt                               0x000165c9   Thumb Code    70  main.o(.text)
    on_sys_evt                               0x0001660f   Thumb Code    42  main.o(.text)
    ble_evt_dispatch                         0x00016639   Thumb Code    18  main.o(.text)
    sys_evt_dispatch                         0x0001664b   Thumb Code    18  main.o(.text)
    ble_stack_init                           0x0001665d   Thumb Code   268  main.o(.text)
    device_manager_evt_handler               0x00016769   Thumb Code    38  main.o(.text)
    device_manager_init                      0x0001678f   Thumb Code   210  main.o(.text)
    power_manage                             0x00016861   Thumb Code    34  main.o(.text)
    output_pins_init                         0x00016883   Thumb Code    28  main.o(.text)
    scheduler_init                           0x0001689f   Thumb Code    46  main.o(.text)
    low_pressure_event_started               0x000168cd   Thumb Code    44  main.o(.text)
    low_pressure_event_finished              0x000168f9   Thumb Code   134  main.o(.text)
    button_event_handler                     0x0001697f   Thumb Code    56  main.o(.text)
    gpiote_init                              0x000169b7   Thumb Code    44  main.o(.text)
    buttons_init                             0x000169e3   Thumb Code    48  main.o(.text)
    adc_init                                 0x00016a13   Thumb Code    28  main.o(.text)
    adc_sampling_start                       0x00016a2f   Thumb Code    28  main.o(.text)
    flash_word_write                         0x00016aa7   Thumb Code   156  main.o(.text)
    writeTempTooHighToFlash                  0x00016b43   Thumb Code   122  main.o(.text)
    writeTempTooLowToFlash                   0x00016bbd   Thumb Code    24  main.o(.text)
    temperature_data_get                     0x00016bd5   Thumb Code   214  main.o(.text)
    doTenSecondWork                          0x00016cab   Thumb Code   310  main.o(.text)
    checkEnterSysOffMode                     0x00016de1   Thumb Code    50  main.o(.text)
    nrf_gpio_cfg_output                      0x00016eaf   Thumb Code    18  main.o(.text)
    nrf_gpio_pin_set                         0x00016ec1   Thumb Code    10  main.o(.text)
    nrf_gpio_pin_clear                       0x00016ecb   Thumb Code    10  main.o(.text)
    app_button_evt_schedule                  0x00016ed5   Thumb Code    26  main.o(.text)
    current_int_priority_get                 0x00016eef   Thumb Code    84  main.o(.text)
    app_button_evt_get                       0x00016f43   Thumb Code    50  main.o(.text)
    .text                                    0x00017004   Section        0  app_timer.o(.text)
    NVIC_SetPriority                         0x00017005   Thumb Code   110  app_timer.o(.text)
    rtc1_init                                0x00017073   Thumb Code    18  app_timer.o(.text)
    rtc1_start                               0x00017085   Thumb Code    48  app_timer.o(.text)
    rtc1_stop                                0x000170b5   Thumb Code    68  app_timer.o(.text)
    timer_list_insert                        0x000170f9   Thumb Code   212  app_timer.o(.text)
    timer_list_remove                        0x000171cd   Thumb Code   170  app_timer.o(.text)
    timer_timeouts_check_sched               0x00017277   Thumb Code    10  app_timer.o(.text)
    timer_list_handler_sched                 0x00017281   Thumb Code    10  app_timer.o(.text)
    timeout_handler_exec                     0x0001728b   Thumb Code    60  app_timer.o(.text)
    timer_timeouts_check                     0x000172c7   Thumb Code   132  app_timer.o(.text)
    elapsed_ticks_acquire                    0x0001734b   Thumb Code    82  app_timer.o(.text)
    list_deletions_handler                   0x0001739d   Thumb Code   284  app_timer.o(.text)
    expired_timers_handler                   0x000174b9   Thumb Code   100  app_timer.o(.text)
    list_insertions_handler                  0x0001751d   Thumb Code   264  app_timer.o(.text)
    compare_reg_update                       0x00017625   Thumb Code   124  app_timer.o(.text)
    timer_list_handler                       0x000176a1   Thumb Code    70  app_timer.o(.text)
    user_op_enque                            0x000176e7   Thumb Code     4  app_timer.o(.text)
    user_op_alloc                            0x000176eb   Thumb Code    44  app_timer.o(.text)
    timer_start_op_schedule                  0x00017717   Thumb Code    80  app_timer.o(.text)
    timer_stop_op_schedule                   0x00017767   Thumb Code    58  app_timer.o(.text)
    timer_stop_all_op_schedule               0x000177a1   Thumb Code    58  app_timer.o(.text)
    user_id_get                              0x0001796b   Thumb Code    34  app_timer.o(.text)
    NVIC_EnableIRQ                           0x00017a69   Thumb Code    14  app_timer.o(.text)
    NVIC_SetPendingIRQ                       0x00017a77   Thumb Code    14  app_timer.o(.text)
    NVIC_ClearPendingIRQ                     0x00017a85   Thumb Code    16  app_timer.o(.text)
    current_int_priority_get                 0x00017a95   Thumb Code    84  app_timer.o(.text)
    rtc1_counter_get                         0x00017ae9   Thumb Code     6  app_timer.o(.text)
    ticks_diff_get                           0x00017aef   Thumb Code    10  app_timer.o(.text)
    .text                                    0x00017b28   Section        0  softdevice_handler.o(.text)
    .text                                    0x00017cfc   Section        0  pstorage.o(.text)
    cmd_queue_element_init                   0x00017cfd   Thumb Code    56  pstorage.o(.text)
    cmd_queue_init                           0x00017d35   Thumb Code    40  pstorage.o(.text)
    swap_state_process                       0x00017d5d   Thumb Code   578  pstorage.o(.text)
    cmd_process                              0x00017f9f   Thumb Code   382  pstorage.o(.text)
    cmd_queue_enqueue                        0x0001811d   Thumb Code   138  pstorage.o(.text)
    cmd_queue_dequeue                        0x000181a7   Thumb Code    32  pstorage.o(.text)
    app_notify                               0x000181c7   Thumb Code   100  pstorage.o(.text)
    is_word_aligned                          0x0001899b   Thumb Code    18  pstorage.o(.text)
    .text                                    0x000189b8   Section        0  device_manager_peripheral.o(.text)
    connection_instance_find                 0x000189b9   Thumb Code    64  device_manager_peripheral.o(.text)
    peer_instance_init                       0x000189f9   Thumb Code    76  device_manager_peripheral.o(.text)
    device_instance_free                     0x00018a45   Thumb Code    44  device_manager_peripheral.o(.text)
    device_instance_find                     0x00018a71   Thumb Code    82  device_manager_peripheral.o(.text)
    connection_instance_init                 0x00018ac3   Thumb Code    50  device_manager_peripheral.o(.text)
    storage_operation_dummy_handler          0x00018af5   Thumb Code     8  device_manager_peripheral.o(.text)
    gatts_context_store                      0x00018afd   Thumb Code   184  device_manager_peripheral.o(.text)
    gattc_context_store                      0x00018bb5   Thumb Code     6  device_manager_peripheral.o(.text)
    gatts_context_load                       0x00018bbb   Thumb Code    64  device_manager_peripheral.o(.text)
    gattc_context_load                       0x00018bfb   Thumb Code     6  device_manager_peripheral.o(.text)
    gatts_context_apply                      0x00018c01   Thumb Code   116  device_manager_peripheral.o(.text)
    gattc_context_apply                      0x00018c75   Thumb Code     6  device_manager_peripheral.o(.text)
    dm_pstorage_cb_handler                   0x00018c95   Thumb Code   506  device_manager_peripheral.o(.text)
    device_context_store                     0x00019513   Thumb Code   172  device_manager_peripheral.o(.text)
    update_status_bit_reset                  0x00019cbb   Thumb Code    16  device_manager_peripheral.o(.text)
    device_instance_allocate                 0x00019ccb   Thumb Code   118  device_manager_peripheral.o(.text)
    app_evt_notify                           0x00019d41   Thumb Code    24  device_manager_peripheral.o(.text)
    no_service_context_store                 0x00019d59   Thumb Code     6  device_manager_peripheral.o(.text)
    gattsc_context_store                     0x00019d5f   Thumb Code    30  device_manager_peripheral.o(.text)
    no_service_context_load                  0x00019d7d   Thumb Code     6  device_manager_peripheral.o(.text)
    gattsc_context_load                      0x00019d83   Thumb Code    30  device_manager_peripheral.o(.text)
    no_service_context_apply                 0x00019da1   Thumb Code     6  device_manager_peripheral.o(.text)
    gattsc_context_apply                     0x00019da7   Thumb Code    26  device_manager_peripheral.o(.text)
    .text                                    0x00019de0   Section        0  ble_advdata.o(.text)
    name_encode                              0x00019de1   Thumb Code   150  ble_advdata.o(.text)
    appearance_encode                        0x00019e77   Thumb Code    74  ble_advdata.o(.text)
    uint8_array_encode                       0x00019ec1   Thumb Code    82  ble_advdata.o(.text)
    tx_power_level_encode                    0x00019f13   Thumb Code    48  ble_advdata.o(.text)
    uuid_list_sized_encode                   0x00019f43   Thumb Code   196  ble_advdata.o(.text)
    uuid_list_encode                         0x0001a007   Thumb Code    64  ble_advdata.o(.text)
    conn_int_check                           0x0001a047   Thumb Code    88  ble_advdata.o(.text)
    conn_int_encode                          0x0001a09f   Thumb Code    92  ble_advdata.o(.text)
    manuf_specific_data_encode               0x0001a0fb   Thumb Code   106  ble_advdata.o(.text)
    service_data_encode                      0x0001a165   Thumb Code   140  ble_advdata.o(.text)
    adv_data_encode                          0x0001a1f1   Thumb Code   302  ble_advdata.o(.text)
    advdata_check                            0x0001a31f   Thumb Code    34  ble_advdata.o(.text)
    srdata_check                             0x0001a341   Thumb Code    16  ble_advdata.o(.text)
    uint16_encode                            0x0001a3cb   Thumb Code    18  ble_advdata.o(.text)
    .text                                    0x0001a3e0   Section        0  ble_radio_notification.o(.text)
    .text                                    0x0001a44c   Section        0  app_button.o(.text)
    button_handler_execute                   0x0001a44d   Thumb Code    82  app_button.o(.text)
    detection_delay_timeout_handler          0x0001a49f   Thumb Code   144  app_button.o(.text)
    gpiote_event_handler                     0x0001a52f   Thumb Code    52  app_button.o(.text)
    .text                                    0x0001a6f8   Section        0  app_gpiote.o(.text)
    sense_level_toggle                       0x0001a6f9   Thumb Code   128  app_gpiote.o(.text)
    pins_sense_disable                       0x0001a817   Thumb Code    98  app_gpiote.o(.text)
    NVIC_SetPriority                         0x0001aacf   Thumb Code   110  app_gpiote.o(.text)
    .text                                    0x0001ab64   Section        0  app_scheduler.o(.text)
    app_sched_event_get                      0x0001ac95   Thumb Code    84  app_scheduler.o(.text)
    current_int_priority_get                 0x0001ad07   Thumb Code    84  app_scheduler.o(.text)
    next_index                               0x0001ad5b   Thumb Code    20  app_scheduler.o(.text)
    .text                                    0x0001adc8   Section        0  memcmp.o(.text)
    .text                                    0x0001ae22   Section        0  rt_memcpy.o(.text)
    .text                                    0x0001aea4   Section        0  rt_memclr.o(.text)
    .text                                    0x0001aee4   Section      346  aeabi_sdiv.o(.text)
    .text                                    0x0001b03e   Section        0  heapauxi.o(.text)
    .text                                    0x0001b044   Section        0  dfixi.o(.text)
    .text                                    0x0001b0b0   Section        0  dflti.o(.text)
    .text                                    0x0001b108   Section        0  dmul.o(.text)
    .text                                    0x0001b350   Section       62  sys_stackheap_outer.o(.text)
    .text                                    0x0001b38e   Section        0  exit.o(.text)
    .text                                    0x0001b39c   Section        8  libspace.o(.text)
    .text                                    0x0001b3a4   Section        0  sys_exit.o(.text)
    .text                                    0x0001b3b0   Section        2  use_no_semi.o(.text)
    .text                                    0x0001b3b2   Section        0  indicate_semi.o(.text)
    i.__ARM_common_switch8                   0x0001b3b2   Section        0  pstorage.o(i.__ARM_common_switch8)
    x$fpl$usenofp                            0x0001b3ce   Section        0  usenofp.o(x$fpl$usenofp)
    .constdata                               0x0001b3d0   Section       52  device_manager_peripheral.o(.constdata)
    .conststring                             0x0001b404   Section       69  device_manager_peripheral.o(.conststring)
    .data                                    0x20002000   Section        4  system_nrf51.o(.data)
    __tagsym$$used                           0x20002000   Number         0  system_nrf51.o(.data)
    .data                                    0x20002004   Section       51  main.o(.data)
    m_10_second_timer_id                     0x20002004   Data           4  main.o(.data)
    ten_second_flag                          0x20002008   Data           1  main.o(.data)
    gCurEventTickDurationCount               0x2000200c   Data           4  main.o(.data)
    m_flags                                  0x20002010   Data           1  main.o(.data)
    gPressureEventsCurHour                   0x20002014   Data           4  main.o(.data)
    m_app_handle                             0x2000201a   Data           1  main.o(.data)
    m_memory_access_in_progress              0x2000201b   Data           1  main.o(.data)
    m_adv_custom_uuids                       0x2000201c   Data           4  main.o(.data)
    buttons                                  0x20002020   Data           8  main.o(.data)
    countTempLow                             0x20002028   Data           1  main.o(.data)
    countTempHigh                            0x20002029   Data           1  main.o(.data)
    hoursTickCount                           0x2000202a   Data           2  main.o(.data)
    daysTickCount                            0x2000202c   Data           2  main.o(.data)
    hourIndex                                0x2000202e   Data           1  main.o(.data)
    dayIndex                                 0x2000202f   Data           1  main.o(.data)
    dayEvents                                0x20002030   Data           7  main.o(.data)
    .data                                    0x20002038   Section       41  app_timer.o(.data)
    m_node_array_size                        0x20002038   Data           1  app_timer.o(.data)
    mp_nodes                                 0x2000203c   Data           4  app_timer.o(.data)
    m_user_array_size                        0x20002040   Data           1  app_timer.o(.data)
    mp_users                                 0x20002044   Data           4  app_timer.o(.data)
    m_timer_id_head                          0x20002048   Data           4  app_timer.o(.data)
    m_ticks_latest                           0x2000204c   Data           4  app_timer.o(.data)
    m_ticks_elapsed                          0x20002050   Data           8  app_timer.o(.data)
    m_ticks_elapsed_q_read_ind               0x20002058   Data           1  app_timer.o(.data)
    m_ticks_elapsed_q_write_ind              0x20002059   Data           1  app_timer.o(.data)
    m_evt_schedule_func                      0x2000205c   Data           4  app_timer.o(.data)
    m_rtc1_running                           0x20002060   Data           1  app_timer.o(.data)
    .data                                    0x20002064   Section       20  softdevice_handler.o(.data)
    m_evt_schedule_func                      0x20002064   Data           4  softdevice_handler.o(.data)
    m_evt_buffer                             0x20002068   Data           4  softdevice_handler.o(.data)
    m_ble_evt_buffer_size                    0x2000206c   Data           2  softdevice_handler.o(.data)
    m_softdevice_enabled                     0x2000206e   Data           1  softdevice_handler.o(.data)
    m_ble_evt_handler                        0x20002070   Data           4  softdevice_handler.o(.data)
    m_sys_evt_handler                        0x20002074   Data           4  softdevice_handler.o(.data)
    .data                                    0x20002078   Section       12  pstorage.o(.data)
    m_next_app_instance                      0x20002078   Data           2  pstorage.o(.data)
    m_next_page_addr                         0x2000207c   Data           4  pstorage.o(.data)
    m_round_val                              0x20002080   Data           2  pstorage.o(.data)
    m_module_initialized                     0x20002082   Data           1  pstorage.o(.data)
    m_swap_state                             0x20002083   Data           1  pstorage.o(.data)
    .data                                    0x20002084   Section       20  device_manager_peripheral.o(.data)
    m_storage_handle                         0x20002084   Data           8  device_manager_peripheral.o(.data)
    m_peer_addr_update                       0x2000208c   Data           4  device_manager_peripheral.o(.data)
    m_module_initialized                     0x20002090   Data           1  device_manager_peripheral.o(.data)
    m_irk_index_table                        0x20002091   Data           7  device_manager_peripheral.o(.data)
    .data                                    0x20002098   Section        8  ble_radio_notification.o(.data)
    m_radio_active                           0x20002098   Data           1  ble_radio_notification.o(.data)
    m_evt_handler                            0x2000209c   Data           4  ble_radio_notification.o(.data)
    .data                                    0x200020a0   Section       32  app_button.o(.data)
    mp_buttons                               0x200020a0   Data           4  app_button.o(.data)
    m_button_count                           0x200020a4   Data           1  app_button.o(.data)
    m_detection_delay                        0x200020a8   Data           4  app_button.o(.data)
    m_evt_schedule_func                      0x200020ac   Data           4  app_button.o(.data)
    m_gpiote_user_id                         0x200020b0   Data           1  app_button.o(.data)
    m_detection_delay_timer_id               0x200020b4   Data           4  app_button.o(.data)
    m_pin_transition                         0x200020b8   Data           8  app_button.o(.data)
    .data                                    0x200020c0   Section       12  app_gpiote.o(.data)
    m_enabled_users_mask                     0x200020c0   Data           4  app_gpiote.o(.data)
    m_user_array_size                        0x200020c4   Data           1  app_gpiote.o(.data)
    m_user_count                             0x200020c5   Data           1  app_gpiote.o(.data)
    mp_users                                 0x200020c8   Data           4  app_gpiote.o(.data)
    .data                                    0x200020cc   Section       14  app_scheduler.o(.data)
    m_queue_event_headers                    0x200020cc   Data           4  app_scheduler.o(.data)
    m_queue_event_data                       0x200020d0   Data           4  app_scheduler.o(.data)
    m_queue_start_index                      0x200020d4   Data           1  app_scheduler.o(.data)
    m_queue_end_index                        0x200020d5   Data           1  app_scheduler.o(.data)
    m_queue_event_size                       0x200020d6   Data           2  app_scheduler.o(.data)
    m_queue_size                             0x200020d8   Data           2  app_scheduler.o(.data)
    .bss                                     0x200020dc   Section     1112  main.o(.bss)
    m_advdata                                0x200020dc   Data          56  main.o(.bss)
    m_adv_params                             0x20002124   Data          20  main.o(.bss)
    APP_TIMER_BUF                            0x20002138   Data         696  main.o(.bss)
    m_adv_manuf_data                         0x200023f0   Data          12  main.o(.bss)
    m_srv_data                               0x200023fc   Data          12  main.o(.bss)
    EVT_BUFFER                               0x20002408   Data          80  main.o(.bss)
    APP_SCHED_BUF                            0x20002458   Data         176  main.o(.bss)
    app_gpiote_buf                           0x20002508   Data          20  main.o(.bss)
    hourEvents                               0x2000251c   Data          24  main.o(.bss)
    .bss                                     0x20002534   Section      220  pstorage.o(.bss)
    m_cmd_queue                              0x20002534   Data         204  pstorage.o(.bss)
    m_app_table                              0x20002600   Data          16  pstorage.o(.bss)
    .bss                                     0x20002610   Section      268  device_manager_peripheral.o(.bss)
    m_peer_table                             0x20002610   Data         196  device_manager_peripheral.o(.bss)
    m_bond_table                             0x200026d4   Data          24  device_manager_peripheral.o(.bss)
    m_gatts_table                            0x200026ec   Data          24  device_manager_peripheral.o(.bss)
    m_connection_table                       0x20002704   Data          12  device_manager_peripheral.o(.bss)
    m_application_table                      0x20002710   Data          12  device_manager_peripheral.o(.bss)
    .bss                                     0x2000271c   Section       96  libspace.o(.bss)
    HEAP                                     0x20002780   Section     2048  arm_startup_nrf51.o(HEAP)
    Heap_Mem                                 0x20002780   Data        2048  arm_startup_nrf51.o(HEAP)
    STACK                                    0x20002f80   Section     2048  arm_startup_nrf51.o(STACK)
    Stack_Mem                                0x20002f80   Data        2048  arm_startup_nrf51.o(STACK)
    __initial_sp                             0x20003780   Data           0  arm_startup_nrf51.o(STACK)

    Global Symbols

    Symbol Name                              Value     Ov Type        Size  Object(Section)

    BuildAttributes$$THM_ISAv3M$S$PE$A:L22$X:L11$S22$IEEE1$IW$USESV6$~STKCKD$USESV7$~SHL$OSPACE$ROPI$EBA8$UX$STANDARDLIB$REQ8$PRES8$EABIv2 0x00000000   Number         0  anon$$obj.o ABSOLUTE
    __ARM_use_no_argv                        0x00000000   Number         0  main.o ABSOLUTE
    __ARM_exceptions_init                     - Undefined Weak Reference
    __alloca_initialize                       - Undefined Weak Reference
    __arm_preinit_                            - Undefined Weak Reference
    __cpp_initialize__aeabi_                  - Undefined Weak Reference
    __cxa_finalize                            - Undefined Weak Reference
    __rt_locale                               - Undefined Weak Reference
    __sigvec_lookup                           - Undefined Weak Reference
    _atexit_init                              - Undefined Weak Reference
    _call_atexit_fns                          - Undefined Weak Reference
    _clock_init                               - Undefined Weak Reference
    _fp_trap_init                             - Undefined Weak Reference
    _fp_trap_shutdown                         - Undefined Weak Reference
    _get_lc_collate                           - Undefined Weak Reference
    _get_lc_ctype                             - Undefined Weak Reference
    _get_lc_monetary                          - Undefined Weak Reference
    _get_lc_numeric                           - Undefined Weak Reference
    _get_lc_time                              - Undefined Weak Reference
    _getenv_init                              - Undefined Weak Reference
    _handle_redirection                       - Undefined Weak Reference
    _init_alloc                               - Undefined Weak Reference
    _init_user_alloc                          - Undefined Weak Reference
    _initio                                   - Undefined Weak Reference
    _rand_init                                - Undefined Weak Reference
    _signal_finish                            - Undefined Weak Reference
    _signal_init                              - Undefined Weak Reference
    _terminate_alloc                          - Undefined Weak Reference
    _terminate_user_alloc                     - Undefined Weak Reference
    _terminateio                              - Undefined Weak Reference
    __Vectors_Size                           0x000000c0   Number         0  arm_startup_nrf51.o ABSOLUTE
    __Vectors                                0x00016000   Data           4  arm_startup_nrf51.o(RESET)
    __Vectors_End                            0x000160c0   Data           0  arm_startup_nrf51.o(RESET)
    __main                                   0x000160c1   Thumb Code     8  __main.o(!!!main)
    __scatterload                            0x000160c9   Thumb Code     0  __scatter.o(!!!scatter)
    __scatterload_rt2                        0x000160c9   Thumb Code    52  __scatter.o(!!!scatter)
    __scatterload_rt2_thumb_only             0x000160c9   Thumb Code     0  __scatter.o(!!!scatter)
    __scatterload_null                       0x000160d9   Thumb Code     0  __scatter.o(!!!scatter)
    __scatterload_copy                       0x00016105   Thumb Code    26  __scatter_copy.o(!!handler_copy)
    __scatterload_zeroinit                   0x00016121   Thumb Code    28  __scatter_zi.o(!!handler_zi)
    __rt_lib_init                            0x0001613d   Thumb Code     0  libinit.o(.ARM.Collect$$libinit$$00000000)
    __rt_lib_init_alloca_1                   0x0001613f   Thumb Code     0  libinit2.o(.ARM.Collect$$libinit$$0000002E)
    __rt_lib_init_argv_1                     0x0001613f   Thumb Code     0  libinit2.o(.ARM.Collect$$libinit$$0000002C)
    __rt_lib_init_atexit_1                   0x0001613f   Thumb Code     0  libinit2.o(.ARM.Collect$$libinit$$0000001B)
    __rt_lib_init_clock_1                    0x0001613f   Thumb Code     0  libinit2.o(.ARM.Collect$$libinit$$00000021)
    __rt_lib_init_cpp_1                      0x0001613f   Thumb Code     0  libinit2.o(.ARM.Collect$$libinit$$00000032)
    __rt_lib_init_exceptions_1               0x0001613f   Thumb Code     0  libinit2.o(.ARM.Collect$$libinit$$00000030)
    __rt_lib_init_fp_1                       0x0001613f   Thumb Code     0  libinit2.o(.ARM.Collect$$libinit$$00000002)
    __rt_lib_init_fp_trap_1                  0x0001613f   Thumb Code     0  libinit2.o(.ARM.Collect$$libinit$$0000001F)
    __rt_lib_init_getenv_1                   0x0001613f   Thumb Code     0  libinit2.o(.ARM.Collect$$libinit$$00000023)
    __rt_lib_init_heap_1                     0x0001613f   Thumb Code     0  libinit2.o(.ARM.Collect$$libinit$$0000000A)
    __rt_lib_init_lc_collate_1               0x0001613f   Thumb Code     0  libinit2.o(.ARM.Collect$$libinit$$00000011)
    __rt_lib_init_lc_ctype_1                 0x0001613f   Thumb Code     0  libinit2.o(.ARM.Collect$$libinit$$00000013)
    __rt_lib_init_lc_monetary_1              0x0001613f   Thumb Code     0  libinit2.o(.ARM.Collect$$libinit$$00000015)
    __rt_lib_init_lc_numeric_1               0x0001613f   Thumb Code     0  libinit2.o(.ARM.Collect$$libinit$$00000017)
    __rt_lib_init_lc_time_1                  0x0001613f   Thumb Code     0  libinit2.o(.ARM.Collect$$libinit$$00000019)
    __rt_lib_init_preinit_1                  0x0001613f   Thumb Code     0  libinit2.o(.ARM.Collect$$libinit$$00000004)
    __rt_lib_init_rand_1                     0x0001613f   Thumb Code     0  libinit2.o(.ARM.Collect$$libinit$$0000000E)
    __rt_lib_init_return                     0x0001613f   Thumb Code     0  libinit2.o(.ARM.Collect$$libinit$$00000033)
    __rt_lib_init_signal_1                   0x0001613f   Thumb Code     0  libinit2.o(.ARM.Collect$$libinit$$0000001D)
    __rt_lib_init_stdio_1                    0x0001613f   Thumb Code     0  libinit2.o(.ARM.Collect$$libinit$$00000025)
    __rt_lib_init_user_alloc_1               0x0001613f   Thumb Code     0  libinit2.o(.ARM.Collect$$libinit$$0000000C)
    __rt_lib_shutdown                        0x00016141   Thumb Code     0  libshutdown.o(.ARM.Collect$$libshutdown$$00000000)
    __rt_lib_shutdown_fp_trap_1              0x00016143   Thumb Code     0  libshutdown2.o(.ARM.Collect$$libshutdown$$00000006)
    __rt_lib_shutdown_heap_1                 0x00016143   Thumb Code     0  libshutdown2.o(.ARM.Collect$$libshutdown$$0000000E)
    __rt_lib_shutdown_return                 0x00016143   Thumb Code     0  libshutdown2.o(.ARM.Collect$$libshutdown$$0000000F)
    __rt_lib_shutdown_signal_1               0x00016143   Thumb Code     0  libshutdown2.o(.ARM.Collect$$libshutdown$$00000009)
    __rt_lib_shutdown_stdio_1                0x00016143   Thumb Code     0  libshutdown2.o(.ARM.Collect$$libshutdown$$00000003)
    __rt_lib_shutdown_user_alloc_1           0x00016143   Thumb Code     0  libshutdown2.o(.ARM.Collect$$libshutdown$$0000000B)
    __rt_entry                               0x00016145   Thumb Code     0  __rtentry.o(.ARM.Collect$$rtentry$$00000000)
    __rt_entry_presh_1                       0x00016145   Thumb Code     0  __rtentry2.o(.ARM.Collect$$rtentry$$00000002)
    __rt_entry_sh                            0x00016145   Thumb Code     0  __rtentry4.o(.ARM.Collect$$rtentry$$00000004)
    __rt_entry_li                            0x0001614b   Thumb Code     0  __rtentry2.o(.ARM.Collect$$rtentry$$0000000A)
    __rt_entry_postsh_1                      0x0001614b   Thumb Code     0  __rtentry2.o(.ARM.Collect$$rtentry$$00000009)
    __rt_entry_main                          0x0001614f   Thumb Code     0  __rtentry2.o(.ARM.Collect$$rtentry$$0000000D)
    __rt_entry_postli_1                      0x0001614f   Thumb Code     0  __rtentry2.o(.ARM.Collect$$rtentry$$0000000C)
    __rt_exit                                0x00016157   Thumb Code     0  rtexit.o(.ARM.Collect$$rtexit$$00000000)
    __rt_exit_ls                             0x00016159   Thumb Code     0  rtexit2.o(.ARM.Collect$$rtexit$$00000003)
    __rt_exit_prels_1                        0x00016159   Thumb Code     0  rtexit2.o(.ARM.Collect$$rtexit$$00000002)
    __rt_exit_exit                           0x0001615d   Thumb Code     0  rtexit2.o(.ARM.Collect$$rtexit$$00000004)
    __asm___11_app_timer_c_cd27f9c3__nrf_delay_us 0x00016165   Thumb Code    30  app_timer.o(.emb_text)
    __aeabi_memcpy4                          0x00016185   Thumb Code    56  rt_memcpy.o(.emb_text)
    __aeabi_memcpy8                          0x00016185   Thumb Code     0  rt_memcpy.o(.emb_text)
    Reset_Handler                            0x000161bd   Thumb Code    26  arm_startup_nrf51.o(.text)
    NMI_Handler                              0x000161d7   Thumb Code     2  arm_startup_nrf51.o(.text)
    HardFault_Handler                        0x000161d9   Thumb Code     2  arm_startup_nrf51.o(.text)
    SVC_Handler                              0x000161db   Thumb Code     2  arm_startup_nrf51.o(.text)
    PendSV_Handler                           0x000161dd   Thumb Code     2  arm_startup_nrf51.o(.text)
    SysTick_Handler                          0x000161df   Thumb Code     2  arm_startup_nrf51.o(.text)
    CCM_AAR_IRQHandler                       0x000161e1   Thumb Code     0  arm_startup_nrf51.o(.text)
    ECB_IRQHandler                           0x000161e1   Thumb Code     0  arm_startup_nrf51.o(.text)
    LPCOMP_IRQHandler                        0x000161e1   Thumb Code     0  arm_startup_nrf51.o(.text)
    POWER_CLOCK_IRQHandler                   0x000161e1   Thumb Code     0  arm_startup_nrf51.o(.text)
    QDEC_IRQHandler                          0x000161e1   Thumb Code     0  arm_startup_nrf51.o(.text)
    RADIO_IRQHandler                         0x000161e1   Thumb Code     0  arm_startup_nrf51.o(.text)
    RNG_IRQHandler                           0x000161e1   Thumb Code     0  arm_startup_nrf51.o(.text)
    RTC0_IRQHandler                          0x000161e1   Thumb Code     0  arm_startup_nrf51.o(.text)
    SPI0_TWI0_IRQHandler                     0x000161e1   Thumb Code     0  arm_startup_nrf51.o(.text)
    SPI1_TWI1_IRQHandler                     0x000161e1   Thumb Code     0  arm_startup_nrf51.o(.text)
    SWI3_IRQHandler                          0x000161e1   Thumb Code     0  arm_startup_nrf51.o(.text)
    SWI4_IRQHandler                          0x000161e1   Thumb Code     0  arm_startup_nrf51.o(.text)
    SWI5_IRQHandler                          0x000161e1   Thumb Code     0  arm_startup_nrf51.o(.text)
    TEMP_IRQHandler                          0x000161e1   Thumb Code     0  arm_startup_nrf51.o(.text)
    TIMER0_IRQHandler                        0x000161e1   Thumb Code     0  arm_startup_nrf51.o(.text)
    TIMER1_IRQHandler                        0x000161e1   Thumb Code     0  arm_startup_nrf51.o(.text)
    TIMER2_IRQHandler                        0x000161e1   Thumb Code     0  arm_startup_nrf51.o(.text)
    UART0_IRQHandler                         0x000161e1   Thumb Code     0  arm_startup_nrf51.o(.text)
    WDT_IRQHandler                           0x000161e1   Thumb Code     0  arm_startup_nrf51.o(.text)
    __user_initial_stackheap                 0x000161e5   Thumb Code     0  arm_startup_nrf51.o(.text)
    SystemCoreClockUpdate                    0x00016211   Thumb Code     8  system_nrf51.o(.text)
    SystemInit                               0x000162b5   Thumb Code    38  system_nrf51.o(.text)
    app_error_handler                        0x000162f9   Thumb Code    12  main.o(.text)
    assert_nrf_callback                      0x00016305   Thumb Code    18  main.o(.text)
    ADC_IRQHandler                           0x00016a4b   Thumb Code    92  main.o(.text)
    main                                     0x00016e13   Thumb Code   156  main.o(.text)
    RTC1_IRQHandler                          0x000177db   Thumb Code    34  app_timer.o(.text)
    SWI0_IRQHandler                          0x000177fd   Thumb Code     8  app_timer.o(.text)
    app_timer_init                           0x00017805   Thumb Code   250  app_timer.o(.text)
    app_timer_create                         0x000178ff   Thumb Code   108  app_timer.o(.text)
    app_timer_start                          0x0001798d   Thumb Code    98  app_timer.o(.text)
    app_timer_stop                           0x000179ef   Thumb Code    60  app_timer.o(.text)
    app_timer_stop_all                       0x00017a2b   Thumb Code    26  app_timer.o(.text)
    app_timer_cnt_get                        0x00017a45   Thumb Code    14  app_timer.o(.text)
    app_timer_cnt_diff_compute               0x00017a53   Thumb Code    22  app_timer.o(.text)
    softdevice_assertion_handler             0x00017b29   Thumb Code    18  softdevice_handler.o(.text)
    intern_softdevice_events_execute         0x00017b3b   Thumb Code   168  softdevice_handler.o(.text)
    softdevice_handler_init                  0x00017be3   Thumb Code    84  softdevice_handler.o(.text)
    softdevice_handler_sd_disable            0x00017c37   Thumb Code    24  softdevice_handler.o(.text)
    softdevice_ble_evt_handler_set           0x00017c4f   Thumb Code    18  softdevice_handler.o(.text)
    softdevice_sys_evt_handler_set           0x00017c61   Thumb Code    18  softdevice_handler.o(.text)
    SWI2_IRQHandler                          0x00017c73   Thumb Code    52  softdevice_handler.o(.text)
    pstorage_sys_event_handler               0x0001822b   Thumb Code   326  pstorage.o(.text)
    pstorage_init                            0x00018371   Thumb Code   196  pstorage.o(.text)
    pstorage_register                        0x00018435   Thumb Code   396  pstorage.o(.text)
    pstorage_block_identifier_get            0x000185c1   Thumb Code   136  pstorage.o(.text)
    pstorage_store                           0x00018649   Thumb Code   202  pstorage.o(.text)
    pstorage_update                          0x00018713   Thumb Code   202  pstorage.o(.text)
    pstorage_load                            0x000187dd   Thumb Code   226  pstorage.o(.text)
    pstorage_clear                           0x000188bf   Thumb Code   184  pstorage.o(.text)
    pstorage_access_status_get               0x00018977   Thumb Code    36  pstorage.o(.text)
    dm_handle_initialize                     0x00018c7b   Thumb Code    26  device_manager_peripheral.o(.text)
    dm_init                                  0x00018e8f   Thumb Code   222  device_manager_peripheral.o(.text)
    dm_register                              0x00018f6d   Thumb Code    98  device_manager_peripheral.o(.text)
    dm_security_setup_req                    0x00018fcf   Thumb Code   140  device_manager_peripheral.o(.text)
    dm_security_status_req                   0x0001905b   Thumb Code   158  device_manager_peripheral.o(.text)
    dm_whitelist_create                      0x000190f9   Thumb Code   194  device_manager_peripheral.o(.text)
    dm_device_add                            0x000191bb   Thumb Code     8  device_manager_peripheral.o(.text)
    dm_device_delete                         0x000191c3   Thumb Code   142  device_manager_peripheral.o(.text)
    dm_device_delete_all                     0x00019251   Thumb Code    98  device_manager_peripheral.o(.text)
    dm_service_context_set                   0x000192b3   Thumb Code   210  device_manager_peripheral.o(.text)
    dm_service_context_get                   0x00019385   Thumb Code   204  device_manager_peripheral.o(.text)
    dm_service_context_delete                0x00019451   Thumb Code    96  device_manager_peripheral.o(.text)
    dm_application_context_set               0x000194b1   Thumb Code     8  device_manager_peripheral.o(.text)
    dm_application_context_get               0x000194b9   Thumb Code     8  device_manager_peripheral.o(.text)
    dm_application_context_delete            0x000194c1   Thumb Code     8  device_manager_peripheral.o(.text)
    dm_application_instance_set              0x000194c9   Thumb Code    74  device_manager_peripheral.o(.text)
    dm_peer_addr_set                         0x000195bf   Thumb Code   228  device_manager_peripheral.o(.text)
    dm_peer_addr_get                         0x000196a3   Thumb Code   176  device_manager_peripheral.o(.text)
    bond_data_load                           0x00019753   Thumb Code    62  device_manager_peripheral.o(.text)
    dm_ble_evt_handler                       0x00019791   Thumb Code  1322  device_manager_peripheral.o(.text)
    ble_advdata_set                          0x0001a351   Thumb Code   122  ble_advdata.o(.text)
    SWI1_IRQHandler                          0x0001a3e1   Thumb Code    34  ble_radio_notification.o(.text)
    ble_radio_notification_init              0x0001a403   Thumb Code    64  ble_radio_notification.o(.text)
    app_button_init                          0x0001a563   Thumb Code   132  app_button.o(.text)
    app_button_enable                        0x0001a5e7   Thumb Code    24  app_button.o(.text)
    app_button_disable                       0x0001a5ff   Thumb Code    42  app_button.o(.text)
    app_button_is_pushed                     0x0001a629   Thumb Code   124  app_button.o(.text)
    GPIOTE_IRQHandler                        0x0001a779   Thumb Code   158  app_gpiote.o(.text)
    app_gpiote_init                          0x0001a879   Thumb Code   116  app_gpiote.o(.text)
    app_gpiote_user_register                 0x0001a8ed   Thumb Code   138  app_gpiote.o(.text)
    app_gpiote_user_enable                   0x0001a977   Thumb Code   226  app_gpiote.o(.text)
    app_gpiote_user_disable                  0x0001aa59   Thumb Code    66  app_gpiote.o(.text)
    app_gpiote_pins_state_get                0x0001aa9b   Thumb Code    52  app_gpiote.o(.text)
    app_sched_init                           0x0001ab65   Thumb Code    66  app_scheduler.o(.text)
    app_sched_event_put                      0x0001aba7   Thumb Code   238  app_scheduler.o(.text)
    app_sched_execute                        0x0001ace9   Thumb Code    30  app_scheduler.o(.text)
    memcmp                                   0x0001adc9   Thumb Code    90  memcmp.o(.text)
    __aeabi_memcpy                           0x0001ae23   Thumb Code   130  rt_memcpy.o(.text)
    __rt_memcpy                              0x0001ae23   Thumb Code     0  rt_memcpy.o(.text)
    _memset_w                                0x0001aea5   Thumb Code    26  rt_memclr.o(.text)
    _memset                                  0x0001aebf   Thumb Code    30  rt_memclr.o(.text)
    __aeabi_memclr                           0x0001aedd   Thumb Code     4  rt_memclr.o(.text)
    __rt_memclr                              0x0001aedd   Thumb Code     0  rt_memclr.o(.text)
    __aeabi_memclr4                          0x0001aee1   Thumb Code     0  rt_memclr.o(.text)
    __aeabi_memclr8                          0x0001aee1   Thumb Code     0  rt_memclr.o(.text)
    __rt_memclr_w                            0x0001aee1   Thumb Code     4  rt_memclr.o(.text)
    __aeabi_uidiv                            0x0001aee5   Thumb Code     0  aeabi_sdiv.o(.text)
    __aeabi_uidivmod                         0x0001aee5   Thumb Code    20  aeabi_sdiv.o(.text)
    __aeabi_idiv                             0x0001aef9   Thumb Code     0  aeabi_sdiv.o(.text)
    __aeabi_idivmod                          0x0001aef9   Thumb Code   326  aeabi_sdiv.o(.text)
    __use_two_region_memory                  0x0001b03f   Thumb Code     2  heapauxi.o(.text)
    __rt_heap_escrow$2region                 0x0001b041   Thumb Code     2  heapauxi.o(.text)
    __rt_heap_expand$2region                 0x0001b043   Thumb Code     2  heapauxi.o(.text)
    __aeabi_d2iz                             0x0001b045   Thumb Code     0  dfixi.o(.text)
    _dfix                                    0x0001b045   Thumb Code    98  dfixi.o(.text)
    __aeabi_i2d_normalise                    0x0001b0b1   Thumb Code    66  dflti.o(.text)
    __aeabi_i2d                              0x0001b0f3   Thumb Code    16  dflti.o(.text)
    _dflt                                    0x0001b0f3   Thumb Code     0  dflti.o(.text)
    __aeabi_ui2d                             0x0001b103   Thumb Code     6  dflti.o(.text)
    _dfltu                                   0x0001b103   Thumb Code     0  dflti.o(.text)
    __aeabi_dmul                             0x0001b109   Thumb Code     0  dmul.o(.text)
    _dmul                                    0x0001b109   Thumb Code   558  dmul.o(.text)
    __user_setup_stackheap                   0x0001b351   Thumb Code    62  sys_stackheap_outer.o(.text)
    exit                                     0x0001b38f   Thumb Code    12  exit.o(.text)
    __user_libspace                          0x0001b39d   Thumb Code     8  libspace.o(.text)
    __user_perproc_libspace                  0x0001b39d   Thumb Code     0  libspace.o(.text)
    __user_perthread_libspace                0x0001b39d   Thumb Code     0  libspace.o(.text)
    _sys_exit                                0x0001b3a5   Thumb Code     8  sys_exit.o(.text)
    __I$use$semihosting                      0x0001b3b1   Thumb Code     0  use_no_semi.o(.text)
    __use_no_semihosting_swi                 0x0001b3b1   Thumb Code     2  use_no_semi.o(.text)
    __ARM_common_switch8                     0x0001b3b3   Thumb Code    28  pstorage.o(i.__ARM_common_switch8)
    __semihosting_library_function           0x0001b3b3   Thumb Code     0  indicate_semi.o(.text)
    __I$use$fp                               0x0001b3ce   Number         0  usenofp.o(x$fpl$usenofp)
    m_service_context_store                  0x0001b3d0   Data          16  device_manager_peripheral.o(.constdata)
    m_service_context_load                   0x0001b3e0   Data          16  device_manager_peripheral.o(.constdata)
    m_service_context_apply                  0x0001b3f0   Data          16  device_manager_peripheral.o(.constdata)
    m_context_init_len                       0x0001b400   Data           4  device_manager_peripheral.o(.constdata)
    Region$$Table$$Base                      0x0001b44c   Number         0  anon$$obj.o(Region$$Table)
    Region$$Table$$Limit                     0x0001b46c   Number         0  anon$$obj.o(Region$$Table)
    SystemCoreClock                          0x20002000   Data           4  system_nrf51.o(.data)
    current_radio_active_state               0x20002018   Data           1  main.o(.data)
    current_radio_time_valid                 0x20002019   Data           1  main.o(.data)
    m_adv_manuf_data_data                    0x20002114   Data          16  main.o(.bss)
    __libspace_start                         0x2000271c   Data          96  libspace.o(.bss)
    __temporary_stack_top$libspace           0x2000277c   Data           0  libspace.o(.bss)



==============================================================================

Memory Map of the image

  Image Entry point : 0x000160c1

  Load Region LR_IROM1 (Base: 0x00016000, Size: 0x00005548, Max: 0x00009000, ABSOLUTE)

    Execution Region ER_IROM1 (Base: 0x00016000, Size: 0x0000546c, Max: 0x00009000, ABSOLUTE)

    Base Addr    Size         Type   Attr      Idx    E Section Name        Object

    0x00016000   0x000000c0   Data   RO            3    RESET               arm_startup_nrf51.o
    0x000160c0   0x00000008   Code   RO          783  * !!!main             c_p.l(__main.o)
    0x000160c8   0x0000003c   Code   RO          958    !!!scatter          c_p.l(__scatter.o)
    0x00016104   0x0000001a   Code   RO          960    !!handler_copy      c_p.l(__scatter_copy.o)
    0x0001611e   0x00000002   PAD
    0x00016120   0x0000001c   Code   RO          962    !!handler_zi        c_p.l(__scatter_zi.o)
    0x0001613c   0x00000002   Code   RO          828    .ARM.Collect$$libinit$$00000000  c_p.l(libinit.o)
    0x0001613e   0x00000000   Code   RO          842    .ARM.Collect$$libinit$$00000002  c_p.l(libinit2.o)
    0x0001613e   0x00000000   Code   RO          844    .ARM.Collect$$libinit$$00000004  c_p.l(libinit2.o)
    0x0001613e   0x00000000   Code   RO          847    .ARM.Collect$$libinit$$0000000A  c_p.l(libinit2.o)
    0x0001613e   0x00000000   Code   RO          849    .ARM.Collect$$libinit$$0000000C  c_p.l(libinit2.o)
    0x0001613e   0x00000000   Code   RO          851    .ARM.Collect$$libinit$$0000000E  c_p.l(libinit2.o)
    0x0001613e   0x00000000   Code   RO          854    .ARM.Collect$$libinit$$00000011  c_p.l(libinit2.o)
    0x0001613e   0x00000000   Code   RO          856    .ARM.Collect$$libinit$$00000013  c_p.l(libinit2.o)
    0x0001613e   0x00000000   Code   RO          858    .ARM.Collect$$libinit$$00000015  c_p.l(libinit2.o)
    0x0001613e   0x00000000   Code   RO          860    .ARM.Collect$$libinit$$00000017  c_p.l(libinit2.o)
    0x0001613e   0x00000000   Code   RO          862    .ARM.Collect$$libinit$$00000019  c_p.l(libinit2.o)
    0x0001613e   0x00000000   Code   RO          864    .ARM.Collect$$libinit$$0000001B  c_p.l(libinit2.o)
    0x0001613e   0x00000000   Code   RO          866    .ARM.Collect$$libinit$$0000001D  c_p.l(libinit2.o)
    0x0001613e   0x00000000   Code   RO          868    .ARM.Collect$$libinit$$0000001F  c_p.l(libinit2.o)
    0x0001613e   0x00000000   Code   RO          870    .ARM.Collect$$libinit$$00000021  c_p.l(libinit2.o)
    0x0001613e   0x00000000   Code   RO          872    .ARM.Collect$$libinit$$00000023  c_p.l(libinit2.o)
    0x0001613e   0x00000000   Code   RO          874    .ARM.Collect$$libinit$$00000025  c_p.l(libinit2.o)
    0x0001613e   0x00000000   Code   RO          878    .ARM.Collect$$libinit$$0000002C  c_p.l(libinit2.o)
    0x0001613e   0x00000000   Code   RO          880    .ARM.Collect$$libinit$$0000002E  c_p.l(libinit2.o)
    0x0001613e   0x00000000   Code   RO          882    .ARM.Collect$$libinit$$00000030  c_p.l(libinit2.o)
    0x0001613e   0x00000000   Code   RO          884    .ARM.Collect$$libinit$$00000032  c_p.l(libinit2.o)
    0x0001613e   0x00000002   Code   RO          885    .ARM.Collect$$libinit$$00000033  c_p.l(libinit2.o)
    0x00016140   0x00000002   Code   RO          916    .ARM.Collect$$libshutdown$$00000000  c_p.l(libshutdown.o)
    0x00016142   0x00000000   Code   RO          943    .ARM.Collect$$libshutdown$$00000003  c_p.l(libshutdown2.o)
    0x00016142   0x00000000   Code   RO          946    .ARM.Collect$$libshutdown$$00000006  c_p.l(libshutdown2.o)
    0x00016142   0x00000000   Code   RO          949    .ARM.Collect$$libshutdown$$00000009  c_p.l(libshutdown2.o)
    0x00016142   0x00000000   Code   RO          951    .ARM.Collect$$libshutdown$$0000000B  c_p.l(libshutdown2.o)
    0x00016142   0x00000000   Code   RO          954    .ARM.Collect$$libshutdown$$0000000E  c_p.l(libshutdown2.o)
    0x00016142   0x00000002   Code   RO          955    .ARM.Collect$$libshutdown$$0000000F  c_p.l(libshutdown2.o)
    0x00016144   0x00000000   Code   RO          791    .ARM.Collect$$rtentry$$00000000  c_p.l(__rtentry.o)
    0x00016144   0x00000000   Code   RO          798    .ARM.Collect$$rtentry$$00000002  c_p.l(__rtentry2.o)
    0x00016144   0x00000006   Code   RO          810    .ARM.Collect$$rtentry$$00000004  c_p.l(__rtentry4.o)
    0x0001614a   0x00000000   Code   RO          800    .ARM.Collect$$rtentry$$00000009  c_p.l(__rtentry2.o)
    0x0001614a   0x00000004   Code   RO          801    .ARM.Collect$$rtentry$$0000000A  c_p.l(__rtentry2.o)
    0x0001614e   0x00000000   Code   RO          803    .ARM.Collect$$rtentry$$0000000C  c_p.l(__rtentry2.o)
    0x0001614e   0x00000008   Code   RO          804    .ARM.Collect$$rtentry$$0000000D  c_p.l(__rtentry2.o)
    0x00016156   0x00000002   Code   RO          833    .ARM.Collect$$rtexit$$00000000  c_p.l(rtexit.o)
    0x00016158   0x00000000   Code   RO          889    .ARM.Collect$$rtexit$$00000002  c_p.l(rtexit2.o)
    0x00016158   0x00000004   Code   RO          890    .ARM.Collect$$rtexit$$00000003  c_p.l(rtexit2.o)
    0x0001615c   0x00000006   Code   RO          891    .ARM.Collect$$rtexit$$00000004  c_p.l(rtexit2.o)
    0x00016162   0x00000002   PAD
    0x00016164   0x0000001e   Code   RO          290    .emb_text           app_timer.o
    0x00016182   0x00000002   PAD
    0x00016184   0x00000038   Code   RO          769    .emb_text           c_p.l(rt_memcpy.o)
    0x000161bc   0x00000054   Code   RO            4    .text               arm_startup_nrf51.o
    0x00016210   0x000000e8   Code   RO           12    .text               system_nrf51.o
    0x000162f8   0x00000d0c   Code   RO           69    .text               main.o
    0x00017004   0x00000b24   Code   RO          291    .text               app_timer.o
    0x00017b28   0x000001d4   Code   RO          347    .text               softdevice_handler.o
    0x00017cfc   0x00000cbc   Code   RO          417    .text               pstorage.o
    0x000189b8   0x00001428   Code   RO          570    .text               device_manager_peripheral.o
    0x00019de0   0x00000600   Code   RO          606    .text               ble_advdata.o
    0x0001a3e0   0x0000006c   Code   RO          647    .text               ble_radio_notification.o
    0x0001a44c   0x000002ac   Code   RO          675    .text               app_button.o
    0x0001a6f8   0x0000046c   Code   RO          706    .text               app_gpiote.o
    0x0001ab64   0x00000264   Code   RO          737    .text               app_scheduler.o
    0x0001adc8   0x0000005a   Code   RO          765    .text               c_p.l(memcmp.o)
    0x0001ae22   0x00000082   Code   RO          770    .text               c_p.l(rt_memcpy.o)
    0x0001aea4   0x00000040   Code   RO          773    .text               c_p.l(rt_memclr.o)
    0x0001aee4   0x0000015a   Code   RO          777    .text               c_p.l(aeabi_sdiv.o)
    0x0001b03e   0x00000006   Code   RO          781    .text               c_p.l(heapauxi.o)
    0x0001b044   0x0000006c   Code   RO          785    .text               fz_ps.l(dfixi.o)
    0x0001b0b0   0x00000058   Code   RO          787    .text               fz_ps.l(dflti.o)
    0x0001b108   0x00000248   Code   RO          789    .text               fz_ps.l(dmul.o)
    0x0001b350   0x0000003e   Code   RO          814    .text               c_p.l(sys_stackheap_outer.o)
    0x0001b38e   0x0000000c   Code   RO          817    .text               c_p.l(exit.o)
    0x0001b39a   0x00000002   PAD
    0x0001b39c   0x00000008   Code   RO          829    .text               c_p.l(libspace.o)
    0x0001b3a4   0x0000000c   Code   RO          886    .text               c_p.l(sys_exit.o)
    0x0001b3b0   0x00000002   Code   RO          905    .text               c_p.l(use_no_semi.o)
    0x0001b3b2   0x00000000   Code   RO          907    .text               c_p.l(indicate_semi.o)
    0x0001b3b2   0x0000001c   Code   RO          435    i.__ARM_common_switch8  pstorage.o
    0x0001b3ce   0x00000000   Code   RO          796    x$fpl$usenofp       fz_ps.l(usenofp.o)
    0x0001b3ce   0x00000002   PAD
    0x0001b3d0   0x00000034   Data   RO          572    .constdata          device_manager_peripheral.o
    0x0001b404   0x00000045   Data   RO          573    .conststring        device_manager_peripheral.o
    0x0001b449   0x00000003   PAD
    0x0001b44c   0x00000020   Data   RO          956    Region$$Table       anon$$obj.o


    Execution Region RW_IRAM1 (Base: 0x20002000, Size: 0x00001780, Max: 0x00002000, ABSOLUTE)

    Base Addr    Size         Type   Attr      Idx    E Section Name        Object

    0x20002000   0x00000004   Data   RW           13    .data               system_nrf51.o
    0x20002004   0x00000033   Data   RW           71    .data               main.o
    0x20002037   0x00000001   PAD
    0x20002038   0x00000029   Data   RW          292    .data               app_timer.o
    0x20002061   0x00000003   PAD
    0x20002064   0x00000014   Data   RW          348    .data               softdevice_handler.o
    0x20002078   0x0000000c   Data   RW          419    .data               pstorage.o
    0x20002084   0x00000014   Data   RW          574    .data               device_manager_peripheral.o
    0x20002098   0x00000008   Data   RW          648    .data               ble_radio_notification.o
    0x200020a0   0x00000020   Data   RW          676    .data               app_button.o
    0x200020c0   0x0000000c   Data   RW          707    .data               app_gpiote.o
    0x200020cc   0x0000000e   Data   RW          738    .data               app_scheduler.o
    0x200020da   0x00000002   PAD
    0x200020dc   0x00000458   Zero   RW           70    .bss                main.o
    0x20002534   0x000000dc   Zero   RW          418    .bss                pstorage.o
    0x20002610   0x0000010c   Zero   RW          571    .bss                device_manager_peripheral.o
    0x2000271c   0x00000060   Zero   RW          830    .bss                c_p.l(libspace.o)
    0x2000277c   0x00000004   PAD
    0x20002780   0x00000800   Zero   RW            2    HEAP                arm_startup_nrf51.o
    0x20002f80   0x00000800   Zero   RW            1    STACK               arm_startup_nrf51.o


==============================================================================

Image component sizes


      Code (inc. data)   RO Data    RW Data    ZI Data      Debug   Object Name

       684         84          0         32          0       9620   app_button.o
      1132         40          0         12          0      11686   app_gpiote.o
       612         90          0         14          0      10819   app_scheduler.o
      2882        202          0         41          0      24893   app_timer.o
         0          0          0          0          0        952   app_trace.o
        84         36        192          0       4096        708   arm_startup_nrf51.o
      1536          4          0          0          0       9910   ble_advdata.o
       108         10          0          8          0       7158   ble_radio_notification.o
         0          0          0          0          0       4056   ble_srv_common.o
      5160        228        121         20        268      24576   device_manager_peripheral.o
      3340        356          0         51       1112      79512   main.o
      3288         94          0         12        220      12262   pstorage.o
       468         86          0         20          0      35788   softdevice_handler.o
       232         30          0          4          0      21701   system_nrf51.o

    ----------------------------------------------------------------------
     19528       1260        348        220       5696     253641   Object Totals
         0          0         32          0          0          0   (incl. Generated)
         2          0          3          6          0          0   (incl. Padding)

    ----------------------------------------------------------------------

      Code (inc. data)   RO Data    RW Data    ZI Data      Debug   Library Member Name

         8          0          0          0          0         68   __main.o
         0          0          0          0          0          0   __rtentry.o
        12          0          0          0          0          0   __rtentry2.o
         6          0          0          0          0          0   __rtentry4.o
        60          8          0          0          0          0   __scatter.o
        26          0          0          0          0          0   __scatter_copy.o
        28          0          0          0          0          0   __scatter_zi.o
       346          0          0          0          0         92   aeabi_sdiv.o
        12          0          0          0          0         64   exit.o
         6          0          0          0          0        136   heapauxi.o
         0          0          0          0          0          0   indicate_semi.o
         2          0          0          0          0          0   libinit.o
         2          0          0          0          0          0   libinit2.o
         2          0          0          0          0          0   libshutdown.o
         2          0          0          0          0          0   libshutdown2.o
         8          4          0          0         96         68   libspace.o
        90          0          0          0          0         68   memcmp.o
        64          0          0          0          0        108   rt_memclr.o
       186          0          0          0          0        144   rt_memcpy.o
         2          0          0          0          0          0   rtexit.o
        10          0          0          0          0          0   rtexit2.o
        12          4          0          0          0         60   sys_exit.o
        62          0          0          0          0         80   sys_stackheap_outer.o
         2          0          0          0          0         68   use_no_semi.o
       108         10          0          0          0         72   dfixi.o
        88          0          0          0          0         92   dflti.o
       584         26          0          0          0         84   dmul.o
         0          0          0          0          0          0   usenofp.o

    ----------------------------------------------------------------------
      1736         52          0          0        100       1204   Library Totals
         8          0          0          0          4          0   (incl. Padding)

    ----------------------------------------------------------------------

      Code (inc. data)   RO Data    RW Data    ZI Data      Debug   Library Name

       948         16          0          0         96        956   c_p.l
       780         36          0          0          0        248   fz_ps.l

    ----------------------------------------------------------------------
      1736         52          0          0        100       1204   Library Totals

    ----------------------------------------------------------------------

==============================================================================


      Code (inc. data)   RO Data    RW Data    ZI Data      Debug   

     21264       1312        348        220       5796     253673   Grand Totals
     21264       1312        348        220       5796     253673   ELF Image Totals
     21264       1312        348        220          0          0   ROM Totals

==============================================================================

    Total RO  Size (Code + RO Data)                21612 (  21.11kB)
    Total RW  Size (RW Data + ZI Data)              6016 (   5.88kB)
    Total ROM Size (Code + RO Data + RW Data)      21832 (  21.32kB)

==============================================================================

